{
  "transactions": [
    {
      "hash": "0x68c7606b5ae4e743bfbd3a8c3d7ef9bbae6cff3de6ffc42bc8e7b2204d48e9c5",
      "transactionType": "CALL",
      "contractName": null,
      "contractAddress": "0x812650b7b982ca7b7da11ef2e901502cf9f0f033",
      "function": "approve(address,uint256)",
      "arguments": [
        "0xf3A39C86dbd13C45365E57FB90fe413371F65AF8",
        "1000000000000000000"
      ],
      "transaction": {
        "from": "0x22b5f4735d80c89f9cf1812d75258f4920ca2fc4",
        "to": "0x812650b7b982ca7b7da11ef2e901502cf9f0f033",
        "gas": "0xed84",
        "value": "0x0",
        "input": "0x095ea7b3000000000000000000000000f3a39c86dbd13c45365e57fb90fe413371f65af80000000000000000000000000000000000000000000000000de0b6b3a7640000",
        "nonce": "0xd",
        "chainId": "0x66eee"
      },
      "additionalContracts": [],
      "isFixedGasLimit": false
    },
    {
      "hash": "0x71b67dd824fc9a007c6171ec32ae3067681a24ce69a6888bf6cf4ba91f4fd9b1",
      "transactionType": "CALL",
      "contractName": null,
      "contractAddress": "0xf3a39c86dbd13c45365e57fb90fe413371f65af8",
      "function": "swap((address,address,uint24,int24,address),(bool,int256,uint160),(bool,bool),bytes)",
      "arguments": [
        "(0x812650b7B982ca7b7DA11eF2e901502Cf9F0F033, 0xA31b26459050A4832EC58eBAa03147941e612c5a, 3000, 60, 0x569b28A558D1229E172E77202D580052179d10c0)",
        "(true, -1000000000000000000, 4295128740)",
        "(false, false)",
        "0x"
      ],
      "transaction": {
        "from": "0x22b5f4735d80c89f9cf1812d75258f4920ca2fc4",
        "to": "0xf3a39c86dbd13c45365e57fb90fe413371f65af8",
        "gas": "0x41e32",
        "value": "0x0",
        "input": "0x2229d0b4000000000000000000000000812650b7b982ca7b7da11ef2e901502cf9f0f033000000000000000000000000a31b26459050a4832ec58ebaa03147941e612c5a0000000000000000000000000000000000000000000000000000000000000bb8000000000000000000000000000000000000000000000000000000000000003c000000000000000000000000569b28a558d1229e172e77202d580052179d10c00000000000000000000000000000000000000000000000000000000000000001fffffffffffffffffffffffffffffffffffffffffffffffff21f494c589c000000000000000000000000000000000000000000000000000000000001000276a40000000000000000000000000000000000000000000000000000000000000000000000000000000000000000000000000000000000000000000000000000000000000000000000000000000000000000000000000000000000000000000001600000000000000000000000000000000000000000000000000000000000000000",
        "nonce": "0xe",
        "chainId": "0x66eee"
      },
      "additionalContracts": [],
      "isFixedGasLimit": false
    }
  ],
  "receipts": [
    {
      "status": "0x1",
      "cumulativeGasUsed": "0xb536",
      "logs": [
        {
          "address": "0x812650b7b982ca7b7da11ef2e901502cf9f0f033",
          "topics": [
            "0x8c5be1e5ebec7d5bd14f71427d1e84f3dd0314c0f7b2291e5b200ac8c7c3b925",
            "0x00000000000000000000000022b5f4735d80c89f9cf1812d75258f4920ca2fc4",
            "0x000000000000000000000000f3a39c86dbd13c45365e57fb90fe413371f65af8"
          ],
          "data": "0x0000000000000000000000000000000000000000000000000de0b6b3a7640000",
          "blockHash": "0xc67b823c3f618aa40d4a8f670ab3221dc99ed4746eea62adb5dc1634e4c9b4f4",
          "blockNumber": "0xbaa8ff5",
          "transactionHash": "0x68c7606b5ae4e743bfbd3a8c3d7ef9bbae6cff3de6ffc42bc8e7b2204d48e9c5",
          "transactionIndex": "0x1",
          "logIndex": "0x0",
          "removed": false
        }
      ],
      "logsBloom": "0x00000000000400000000000000020000000000020000000000000000000000000000000000000000000000000000000000000000000000000000000000200000000000100040000000000000000000000000000000000000000000000000000000000000000000000000000000000000000000000000000000000000000000000000000000000000002000000000000000000000000000000000000000000000020000000000000000000000000000000000000000000000000000000000000000080000000002000000000000000000000000000000000000000002000000000010000000000000000000000000000000000000000000000000000000000000",
      "type": "0x2",
      "transactionHash": "0x68c7606b5ae4e743bfbd3a8c3d7ef9bbae6cff3de6ffc42bc8e7b2204d48e9c5",
      "transactionIndex": "0x1",
      "blockHash": "0xc67b823c3f618aa40d4a8f670ab3221dc99ed4746eea62adb5dc1634e4c9b4f4",
      "blockNumber": "0xbaa8ff5",
      "gasUsed": "0xb536",
      "effectiveGasPrice": "0x5f5e100",
      "from": "0x22b5f4735d80c89f9cf1812d75258f4920ca2fc4",
      "to": "0x812650b7b982ca7b7da11ef2e901502cf9f0f033",
      "contractAddress": null,
      "gasUsedForL1": "0x0",
      "l1BlockNumber": "0x8cdcdc",
      "timeboosted": false
    },
    {
      "status": "0x1",
      "cumulativeGasUsed": "0x74957",
      "logs": [
        {
          "address": "0xfb3e0c6f74eb1a21cc1da29aec80d2dfe6c9a317",
          "topics": [
            "0x40e9cecb9f5f1f1c5b9c97dec2917b7ee92e57ba5563708daca94dd84ad7112f",
            "0xcb0fa20d5d44e9edfce11efa467cba0827757824efc2d5fcb0e43e4e463ca508",
            "0x000000000000000000000000f3a39c86dbd13c45365e57fb90fe413371f65af8"
          ],
          "data": "0xfffffffffffffffffffffffffffffffffffffffffffffffff21f494c589c00000000000000000000000000000000000000000000000000000db317008968e0b20000000000000000000000000000000000000000fd790e5d4347808dc857a93c0000000000000000000000000000000000000000000000056bc75e2d63100000ffffffffffffffffffffffffffffffffffffffffffffffffffffffffffffff390000000000000000000000000000000000000000000000000000000000000bb8",
          "blockHash": "0x92260118be28cede9ba1cacd8905ffd181eb320e1427d125481571b5f8eb610d",
          "blockNumber": "0xbaa8ffd",
          "transactionHash": "0x71b67dd824fc9a007c6171ec32ae3067681a24ce69a6888bf6cf4ba91f4fd9b1",
          "transactionIndex": "0x4",
          "logIndex": "0x6",
          "removed": false
        },
        {
          "address": "0x812650b7b982ca7b7da11ef2e901502cf9f0f033",
          "topics": [
            "0xddf252ad1be2c89b69c2b068fc378daa952ba7f163c4a11628f55a4df523b3ef",
            "0x00000000000000000000000022b5f4735d80c89f9cf1812d75258f4920ca2fc4",
            "0x000000000000000000000000fb3e0c6f74eb1a21cc1da29aec80d2dfe6c9a317"
          ],
          "data": "0x0000000000000000000000000000000000000000000000000de0b6b3a7640000",
          "blockHash": "0x92260118be28cede9ba1cacd8905ffd181eb320e1427d125481571b5f8eb610d",
          "blockNumber": "0xbaa8ffd",
          "transactionHash": "0x71b67dd824fc9a007c6171ec32ae3067681a24ce69a6888bf6cf4ba91f4fd9b1",
          "transactionIndex": "0x4",
          "logIndex": "0x7",
          "removed": false
        },
        {
          "address": "0xa31b26459050a4832ec58ebaa03147941e612c5a",
          "topics": [
            "0xddf252ad1be2c89b69c2b068fc378daa952ba7f163c4a11628f55a4df523b3ef",
            "0x000000000000000000000000fb3e0c6f74eb1a21cc1da29aec80d2dfe6c9a317",
            "0x00000000000000000000000022b5f4735d80c89f9cf1812d75258f4920ca2fc4"
          ],
          "data": "0x0000000000000000000000000000000000000000000000000db317008968e0b2",
          "blockHash": "0x92260118be28cede9ba1cacd8905ffd181eb320e1427d125481571b5f8eb610d",
          "blockNumber": "0xbaa8ffd",
          "transactionHash": "0x71b67dd824fc9a007c6171ec32ae3067681a24ce69a6888bf6cf4ba91f4fd9b1",
          "transactionIndex": "0x4",
          "logIndex": "0x8",
          "removed": false
        }
      ],
      "logsBloom": "0x00000040000400000000000000020008000000020020000000000000000000000040000000000000000004000000000000000000040000000000000000000040000000100048000000000008000000000000000000000020000000000000000000000000000400000000000000000000000000000000000000010010008000000000000000000000002000000000000000000000000000000000000000000000000000000000000000000000000000000000000000000000000000000000000000080002000002000000000000000000000000000000000000000002000000000000000000000000004000000000000000000000000000000000000000000004",
      "type": "0x2",
      "transactionHash": "0x71b67dd824fc9a007c6171ec32ae3067681a24ce69a6888bf6cf4ba91f4fd9b1",
      "transactionIndex": "0x4",
      "blockHash": "0x92260118be28cede9ba1cacd8905ffd181eb320e1427d125481571b5f8eb610d",
      "blockNumber": "0xbaa8ffd",
      "gasUsed": "0x2d0d2",
      "effectiveGasPrice": "0x5f5e100",
      "from": "0x22b5f4735d80c89f9cf1812d75258f4920ca2fc4",
      "to": "0xf3a39c86dbd13c45365e57fb90fe413371f65af8",
      "contractAddress": null,
      "gasUsedForL1": "0x0",
      "l1BlockNumber": "0x8cdcdc",
      "timeboosted": false
    }
  ],
  "libraries": [],
  "pending": [],
  "returns": {},
  "timestamp": 1758236625,
  "chain": 421614,
  "commit": "9ac1068"
}